{
  "_format": "hh-sol-artifact-1",
  "contractName": "electro",
  "sourceName": "contracts/electro.sol",
  "abi": [
    {
      "inputs": [],
      "stateMutability": "nonpayable",
      "type": "constructor"
    },
    {
      "inputs": [],
      "name": "ECDSAInvalidSignature",
      "type": "error"
    },
    {
      "inputs": [
        {
          "internalType": "uint256",
          "name": "length",
          "type": "uint256"
        }
      ],
      "name": "ECDSAInvalidSignatureLength",
      "type": "error"
    },
    {
      "inputs": [
        {
          "internalType": "bytes32",
          "name": "s",
          "type": "bytes32"
        }
      ],
      "name": "ECDSAInvalidSignatureS",
      "type": "error"
    },
    {
      "inputs": [
        {
          "internalType": "address",
          "name": "spender",
          "type": "address"
        },
        {
          "internalType": "uint256",
          "name": "allowance",
          "type": "uint256"
        },
        {
          "internalType": "uint256",
          "name": "needed",
          "type": "uint256"
        }
      ],
      "name": "ERC20InsufficientAllowance",
      "type": "error"
    },
    {
      "inputs": [
        {
          "internalType": "address",
          "name": "sender",
          "type": "address"
        },
        {
          "internalType": "uint256",
          "name": "balance",
          "type": "uint256"
        },
        {
          "internalType": "uint256",
          "name": "needed",
          "type": "uint256"
        }
      ],
      "name": "ERC20InsufficientBalance",
      "type": "error"
    },
    {
      "inputs": [
        {
          "internalType": "address",
          "name": "approver",
          "type": "address"
        }
      ],
      "name": "ERC20InvalidApprover",
      "type": "error"
    },
    {
      "inputs": [
        {
          "internalType": "address",
          "name": "receiver",
          "type": "address"
        }
      ],
      "name": "ERC20InvalidReceiver",
      "type": "error"
    },
    {
      "inputs": [
        {
          "internalType": "address",
          "name": "sender",
          "type": "address"
        }
      ],
      "name": "ERC20InvalidSender",
      "type": "error"
    },
    {
      "inputs": [
        {
          "internalType": "address",
          "name": "spender",
          "type": "address"
        }
      ],
      "name": "ERC20InvalidSpender",
      "type": "error"
    },
    {
      "inputs": [
        {
          "internalType": "uint256",
          "name": "deadline",
          "type": "uint256"
        }
      ],
      "name": "ERC2612ExpiredSignature",
      "type": "error"
    },
    {
      "inputs": [
        {
          "internalType": "address",
          "name": "signer",
          "type": "address"
        },
        {
          "internalType": "address",
          "name": "owner",
          "type": "address"
        }
      ],
      "name": "ERC2612InvalidSigner",
      "type": "error"
    },
    {
      "inputs": [
        {
          "internalType": "address",
          "name": "account",
          "type": "address"
        },
        {
          "internalType": "uint256",
          "name": "currentNonce",
          "type": "uint256"
        }
      ],
      "name": "InvalidAccountNonce",
      "type": "error"
    },
    {
      "inputs": [],
      "name": "InvalidShortString",
      "type": "error"
    },
    {
      "inputs": [
        {
          "internalType": "string",
          "name": "str",
          "type": "string"
        }
      ],
      "name": "StringTooLong",
      "type": "error"
    },
    {
      "anonymous": false,
      "inputs": [
        {
          "indexed": true,
          "internalType": "address",
          "name": "owner",
          "type": "address"
        },
        {
          "indexed": true,
          "internalType": "address",
          "name": "spender",
          "type": "address"
        },
        {
          "indexed": false,
          "internalType": "uint256",
          "name": "value",
          "type": "uint256"
        }
      ],
      "name": "Approval",
      "type": "event"
    },
    {
      "anonymous": false,
      "inputs": [],
      "name": "EIP712DomainChanged",
      "type": "event"
    },
    {
      "anonymous": false,
      "inputs": [
        {
          "indexed": true,
          "internalType": "address",
          "name": "from",
          "type": "address"
        },
        {
          "indexed": true,
          "internalType": "address",
          "name": "to",
          "type": "address"
        },
        {
          "indexed": false,
          "internalType": "uint256",
          "name": "value",
          "type": "uint256"
        }
      ],
      "name": "Transfer",
      "type": "event"
    },
    {
      "inputs": [],
      "name": "DOMAIN_SEPARATOR",
      "outputs": [
        {
          "internalType": "bytes32",
          "name": "",
          "type": "bytes32"
        }
      ],
      "stateMutability": "view",
      "type": "function"
    },
    {
      "inputs": [
        {
          "internalType": "address",
          "name": "",
          "type": "address"
        }
      ],
      "name": "People",
      "outputs": [
        {
          "internalType": "address",
          "name": "people_address",
          "type": "address"
        },
        {
          "internalType": "uint256",
          "name": "waste",
          "type": "uint256"
        },
        {
          "internalType": "uint256",
          "name": "id",
          "type": "uint256"
        },
        {
          "internalType": "uint256",
          "name": "amount",
          "type": "uint256"
        },
        {
          "internalType": "uint256",
          "name": "total_amount",
          "type": "uint256"
        },
        {
          "internalType": "uint256",
          "name": "amount_deducted",
          "type": "uint256"
        }
      ],
      "stateMutability": "view",
      "type": "function"
    },
    {
      "inputs": [
        {
          "internalType": "address",
          "name": "owner",
          "type": "address"
        },
        {
          "internalType": "address",
          "name": "spender",
          "type": "address"
        }
      ],
      "name": "allowance",
      "outputs": [
        {
          "internalType": "uint256",
          "name": "",
          "type": "uint256"
        }
      ],
      "stateMutability": "view",
      "type": "function"
    },
    {
      "inputs": [
        {
          "internalType": "address",
          "name": "spender",
          "type": "address"
        },
        {
          "internalType": "uint256",
          "name": "value",
          "type": "uint256"
        }
      ],
      "name": "approve",
      "outputs": [
        {
          "internalType": "bool",
          "name": "",
          "type": "bool"
        }
      ],
      "stateMutability": "nonpayable",
      "type": "function"
    },
    {
      "inputs": [
        {
          "internalType": "address",
          "name": "account",
          "type": "address"
        }
      ],
      "name": "balanceOf",
      "outputs": [
        {
          "internalType": "uint256",
          "name": "",
          "type": "uint256"
        }
      ],
      "stateMutability": "view",
      "type": "function"
    },
    {
      "inputs": [
        {
          "internalType": "uint256",
          "name": "value",
          "type": "uint256"
        }
      ],
      "name": "burn",
      "outputs": [],
      "stateMutability": "nonpayable",
      "type": "function"
    },
    {
      "inputs": [
        {
          "internalType": "address",
          "name": "account",
          "type": "address"
        },
        {
          "internalType": "uint256",
          "name": "value",
          "type": "uint256"
        }
      ],
      "name": "burnFrom",
      "outputs": [],
      "stateMutability": "nonpayable",
      "type": "function"
    },
    {
      "inputs": [],
      "name": "decimals",
      "outputs": [
        {
          "internalType": "uint8",
          "name": "",
          "type": "uint8"
        }
      ],
      "stateMutability": "view",
      "type": "function"
    },
    {
      "inputs": [],
      "name": "eip712Domain",
      "outputs": [
        {
          "internalType": "bytes1",
          "name": "fields",
          "type": "bytes1"
        },
        {
          "internalType": "string",
          "name": "name",
          "type": "string"
        },
        {
          "internalType": "string",
          "name": "version",
          "type": "string"
        },
        {
          "internalType": "uint256",
          "name": "chainId",
          "type": "uint256"
        },
        {
          "internalType": "address",
          "name": "verifyingContract",
          "type": "address"
        },
        {
          "internalType": "bytes32",
          "name": "salt",
          "type": "bytes32"
        },
        {
          "internalType": "uint256[]",
          "name": "extensions",
          "type": "uint256[]"
        }
      ],
      "stateMutability": "view",
      "type": "function"
    },
    {
      "inputs": [
        {
          "internalType": "uint256",
          "name": "_id",
          "type": "uint256"
        }
      ],
      "name": "fetching_log_data",
      "outputs": [
        {
          "components": [
            {
              "internalType": "address",
              "name": "from",
              "type": "address"
            },
            {
              "internalType": "address",
              "name": "to",
              "type": "address"
            },
            {
              "internalType": "uint256",
              "name": "value",
              "type": "uint256"
            }
          ],
          "internalType": "struct electro.Data",
          "name": "",
          "type": "tuple"
        }
      ],
      "stateMutability": "view",
      "type": "function"
    },
    {
      "inputs": [],
      "name": "fetching_log_int",
      "outputs": [
        {
          "internalType": "uint256[]",
          "name": "",
          "type": "uint256[]"
        }
      ],
      "stateMutability": "view",
      "type": "function"
    },
    {
      "inputs": [],
      "name": "name",
      "outputs": [
        {
          "internalType": "string",
          "name": "",
          "type": "string"
        }
      ],
      "stateMutability": "view",
      "type": "function"
    },
    {
      "inputs": [
        {
          "internalType": "address",
          "name": "owner",
          "type": "address"
        }
      ],
      "name": "nonces",
      "outputs": [
        {
          "internalType": "uint256",
          "name": "",
          "type": "uint256"
        }
      ],
      "stateMutability": "view",
      "type": "function"
    },
    {
      "inputs": [],
      "name": "people_deducted_amount",
      "outputs": [
        {
          "internalType": "uint256",
          "name": "",
          "type": "uint256"
        }
      ],
      "stateMutability": "view",
      "type": "function"
    },
    {
      "inputs": [
        {
          "internalType": "address",
          "name": "to",
          "type": "address"
        },
        {
          "internalType": "uint256",
          "name": "value",
          "type": "uint256"
        }
      ],
      "name": "people_spend",
      "outputs": [],
      "stateMutability": "nonpayable",
      "type": "function"
    },
    {
      "inputs": [],
      "name": "people_total_amount",
      "outputs": [
        {
          "internalType": "uint256",
          "name": "",
          "type": "uint256"
        }
      ],
      "stateMutability": "view",
      "type": "function"
    },
    {
      "inputs": [],
      "name": "people_waste",
      "outputs": [
        {
          "internalType": "uint256",
          "name": "",
          "type": "uint256"
        }
      ],
      "stateMutability": "view",
      "type": "function"
    },
    {
      "inputs": [
        {
          "internalType": "address",
          "name": "owner",
          "type": "address"
        },
        {
          "internalType": "address",
          "name": "spender",
          "type": "address"
        },
        {
          "internalType": "uint256",
          "name": "value",
          "type": "uint256"
        },
        {
          "internalType": "uint256",
          "name": "deadline",
          "type": "uint256"
        },
        {
          "internalType": "uint8",
          "name": "v",
          "type": "uint8"
        },
        {
          "internalType": "bytes32",
          "name": "r",
          "type": "bytes32"
        },
        {
          "internalType": "bytes32",
          "name": "s",
          "type": "bytes32"
        }
      ],
      "name": "permit",
      "outputs": [],
      "stateMutability": "nonpayable",
      "type": "function"
    },
    {
      "inputs": [
        {
          "internalType": "address",
          "name": "to",
          "type": "address"
        },
        {
          "internalType": "uint256",
          "name": "value",
          "type": "uint256"
        },
        {
          "internalType": "uint256",
          "name": "_waste",
          "type": "uint256"
        }
      ],
      "name": "sendReward",
      "outputs": [],
      "stateMutability": "nonpayable",
      "type": "function"
    },
    {
      "inputs": [],
      "name": "symbol",
      "outputs": [
        {
          "internalType": "string",
          "name": "",
          "type": "string"
        }
      ],
      "stateMutability": "view",
      "type": "function"
    },
    {
      "inputs": [],
      "name": "totalSupply",
      "outputs": [
        {
          "internalType": "uint256",
          "name": "",
          "type": "uint256"
        }
      ],
      "stateMutability": "view",
      "type": "function"
    },
    {
      "inputs": [
        {
          "internalType": "address",
          "name": "to",
          "type": "address"
        },
        {
          "internalType": "uint256",
          "name": "value",
          "type": "uint256"
        }
      ],
      "name": "transfer",
      "outputs": [
        {
          "internalType": "bool",
          "name": "",
          "type": "bool"
        }
      ],
      "stateMutability": "nonpayable",
      "type": "function"
    },
    {
      "inputs": [
        {
          "internalType": "address",
          "name": "from",
          "type": "address"
        },
        {
          "internalType": "address",
          "name": "to",
          "type": "address"
        },
        {
          "internalType": "uint256",
          "name": "value",
          "type": "uint256"
        }
      ],
      "name": "transferFrom",
      "outputs": [
        {
          "internalType": "bool",
          "name": "",
          "type": "bool"
        }
      ],
      "stateMutability": "nonpayable",
      "type": "function"
    }
  ],
  "bytecode": "0x6101606040523480156200001257600080fd5b506040518060400160405280600781526020017f4d79546f6b656e00000000000000000000000000000000000000000000000000815250806040518060400160405280600181526020017f31000000000000000000000000000000000000000000000000000000000000008152506040518060400160405280600b81526020017f456c656374726f436f696e0000000000000000000000000000000000000000008152506040518060400160405280600381526020017f45544300000000000000000000000000000000000000000000000000000000008152508160039081620000fd919062000881565b5080600490816200010f919062000881565b505050620001286005836200021e60201b90919060201c565b6101208181525050620001466006826200021e60201b90919060201c565b6101408181525050818051906020012060e08181525050808051906020012061010081815250504660a08181525050620001856200027660201b60201c565b608081815250503073ffffffffffffffffffffffffffffffffffffffff1660c08173ffffffffffffffffffffffffffffffffffffffff1681525050505050620001d7336103e8620002d360201b60201c565b33600860006101000a81548173ffffffffffffffffffffffffffffffffffffffff021916908373ffffffffffffffffffffffffffffffffffffffff16021790555062000c6c565b600060208351101562000244576200023c836200036060201b60201c565b905062000270565b826200025683620003cd60201b60201c565b600001908162000267919062000881565b5060ff60001b90505b92915050565b60007f8b73c3c69bb8fe3d512ecc4cf759cc79239f7b179b0ffacaa9a75d522b39400f60e051610100514630604051602001620002b8959493929190620009d9565b60405160208183030381529060405280519060200120905090565b600073ffffffffffffffffffffffffffffffffffffffff168273ffffffffffffffffffffffffffffffffffffffff1603620003485760006040517fec442f050000000000000000000000000000000000000000000000000000000081526004016200033f919062000a36565b60405180910390fd5b6200035c60008383620003d760201b60201c565b5050565b600080829050601f81511115620003b057826040517f305a27a9000000000000000000000000000000000000000000000000000000008152600401620003a7919062000ae2565b60405180910390fd5b805181620003be9062000b38565b60001c1760001b915050919050565b6000819050919050565b600073ffffffffffffffffffffffffffffffffffffffff168373ffffffffffffffffffffffffffffffffffffffff16036200042d57806002600082825462000420919062000bd7565b9250508190555062000503565b60008060008573ffffffffffffffffffffffffffffffffffffffff1673ffffffffffffffffffffffffffffffffffffffff16815260200190815260200160002054905081811015620004bc578381836040517fe450d38c000000000000000000000000000000000000000000000000000000008152600401620004b39392919062000c12565b60405180910390fd5b8181036000808673ffffffffffffffffffffffffffffffffffffffff1673ffffffffffffffffffffffffffffffffffffffff16815260200190815260200160002081905550505b600073ffffffffffffffffffffffffffffffffffffffff168273ffffffffffffffffffffffffffffffffffffffff16036200054e57806002600082825403925050819055506200059b565b806000808473ffffffffffffffffffffffffffffffffffffffff1673ffffffffffffffffffffffffffffffffffffffff168152602001908152602001600020600082825401925050819055505b8173ffffffffffffffffffffffffffffffffffffffff168373ffffffffffffffffffffffffffffffffffffffff167fddf252ad1be2c89b69c2b068fc378daa952ba7f163c4a11628f55a4df523b3ef83604051620005fa919062000c4f565b60405180910390a3505050565b600081519050919050565b7f4e487b7100000000000000000000000000000000000000000000000000000000600052604160045260246000fd5b7f4e487b7100000000000000000000000000000000000000000000000000000000600052602260045260246000fd5b600060028204905060018216806200068957607f821691505b6020821081036200069f576200069e62000641565b5b50919050565b60008190508160005260206000209050919050565b60006020601f8301049050919050565b600082821b905092915050565b600060088302620007097fffffffffffffffffffffffffffffffffffffffffffffffffffffffffffffffff82620006ca565b620007158683620006ca565b95508019841693508086168417925050509392505050565b6000819050919050565b6000819050919050565b6000620007626200075c62000756846200072d565b62000737565b6200072d565b9050919050565b6000819050919050565b6200077e8362000741565b620007966200078d8262000769565b848454620006d7565b825550505050565b600090565b620007ad6200079e565b620007ba81848462000773565b505050565b5b81811015620007e257620007d6600082620007a3565b600181019050620007c0565b5050565b601f8211156200083157620007fb81620006a5565b6200080684620006ba565b8101602085101562000816578190505b6200082e6200082585620006ba565b830182620007bf565b50505b505050565b600082821c905092915050565b6000620008566000198460080262000836565b1980831691505092915050565b600062000871838362000843565b9150826002028217905092915050565b6200088c8262000607565b67ffffffffffffffff811115620008a857620008a762000612565b5b620008b4825462000670565b620008c1828285620007e6565b600060209050601f831160018114620008f95760008415620008e4578287015190505b620008f0858262000863565b86555062000960565b601f1984166200090986620006a5565b60005b8281101562000933578489015182556001820191506020850194506020810190506200090c565b868310156200095357848901516200094f601f89168262000843565b8355505b6001600288020188555050505b505050505050565b6000819050919050565b6200097d8162000968565b82525050565b6200098e816200072d565b82525050565b600073ffffffffffffffffffffffffffffffffffffffff82169050919050565b6000620009c18262000994565b9050919050565b620009d381620009b4565b82525050565b600060a082019050620009f0600083018862000972565b620009ff602083018762000972565b62000a0e604083018662000972565b62000a1d606083018562000983565b62000a2c6080830184620009c8565b9695505050505050565b600060208201905062000a4d6000830184620009c8565b92915050565b600082825260208201905092915050565b60005b8381101562000a8457808201518184015260208101905062000a67565b60008484015250505050565b6000601f19601f8301169050919050565b600062000aae8262000607565b62000aba818562000a53565b935062000acc81856020860162000a64565b62000ad78162000a90565b840191505092915050565b6000602082019050818103600083015262000afe818462000aa1565b905092915050565b600081519050919050565b6000819050602082019050919050565b600062000b2f825162000968565b80915050919050565b600062000b458262000b06565b8262000b518462000b11565b905062000b5e8162000b21565b9250602082101562000ba15762000b9c7fffffffffffffffffffffffffffffffffffffffffffffffffffffffffffffffff83602003600802620006ca565b831692505b5050919050565b7f4e487b7100000000000000000000000000000000000000000000000000000000600052601160045260246000fd5b600062000be4826200072d565b915062000bf1836200072d565b925082820190508082111562000c0c5762000c0b62000ba8565b5b92915050565b600060608201905062000c296000830186620009c8565b62000c38602083018562000983565b62000c47604083018462000983565b949350505050565b600060208201905062000c66600083018462000983565b92915050565b60805160a05160c05160e051610100516101205161014051612c1962000cc76000396000611818015260006117dd01526000611d2d01526000611d0c01526000611656015260006116ac015260006116d50152612c196000f3fe608060405234801561001057600080fd5b506004361061014d5760003560e01c80637ce66ea7116100c3578063b082b6881161007c578063b082b688146103aa578063b96b6167146103da578063bd30fe1d146103f8578063c35d83a01461042d578063d505accf14610449578063dd62ed3e146104655761014d565b80637ce66ea7146102cc5780637ecebe00146102ea57806384b0196e1461031a57806395d89b411461033e578063a366a0c81461035c578063a9059cbb1461037a5761014d565b8063304e79f511610115578063304e79f51461020c578063313ce567146102285780633644e5151461024657806342966c681461026457806370a082311461028057806379cc6790146102b05761014d565b806306596ad31461015257806306fdde0314610170578063095ea7b31461018e57806318160ddd146101be57806323b872dd146101dc575b600080fd5b61015a610495565b60405161016791906121f0565b60405180910390f35b6101786104df565b604051610185919061229b565b60405180910390f35b6101a860048036038101906101a3919061234c565b610571565b6040516101b591906123a7565b60405180910390f35b6101c6610594565b6040516101d391906121f0565b60405180910390f35b6101f660048036038101906101f191906123c2565b61059e565b60405161020391906123a7565b60405180910390f35b6102266004803603810190610221919061234c565b6105cd565b005b610230610935565b60405161023d9190612431565b60405180910390f35b61024e61093e565b60405161025b9190612465565b60405180910390f35b61027e60048036038101906102799190612480565b61094d565b005b61029a600480360381019061029591906124ad565b610961565b6040516102a791906121f0565b60405180910390f35b6102ca60048036038101906102c5919061234c565b6109a9565b005b6102d46109c9565b6040516102e191906121f0565b60405180910390f35b61030460048036038101906102ff91906124ad565b610a13565b60405161031191906121f0565b60405180910390f35b610322610a25565b60405161033597969594939291906125e2565b60405180910390f35b610346610acf565b604051610353919061229b565b60405180910390f35b610364610b61565b60405161037191906121f0565b60405180910390f35b610394600480360381019061038f919061234c565b610bab565b6040516103a191906123a7565b60405180910390f35b6103c460048036038101906103bf9190612480565b610bce565b6040516103d191906126b7565b60405180910390f35b6103e2610cb1565b6040516103ef91906126d2565b60405180910390f35b610412600480360381019061040d91906124ad565b610d46565b604051610424969594939291906126f4565b60405180910390f35b61044760048036038101906104429190612755565b610da2565b005b610463600480360381019061045e9190612800565b6112e1565b005b61047f600480360381019061047a91906128a2565b611429565b60405161048c91906121f0565b60405180910390f35b6000600b60003373ffffffffffffffffffffffffffffffffffffffff1673ffffffffffffffffffffffffffffffffffffffff16815260200190815260200160002060040154905090565b6060600380546104ee90612911565b80601f016020809104026020016040519081016040528092919081815260200182805461051a90612911565b80156105675780601f1061053c57610100808354040283529160200191610567565b820191906000526020600020905b81548152906001019060200180831161054a57829003601f168201915b5050505050905090565b60008061057c6114b0565b90506105898185856114b8565b600191505092915050565b6000600254905090565b6000806105a96114b0565b90506105b68582856114ca565b6105c185858561155e565b60019150509392505050565b60006105d833610961565b11610618576040517f08c379a000000000000000000000000000000000000000000000000000000000815260040161060f9061298e565b60405180910390fd5b80600b60003373ffffffffffffffffffffffffffffffffffffffff1673ffffffffffffffffffffffffffffffffffffffff1681526020019081526020016000206005015461066691906129dd565b600b60003373ffffffffffffffffffffffffffffffffffffffff1673ffffffffffffffffffffffffffffffffffffffff168152602001908152602001600020600501819055506001600b60008473ffffffffffffffffffffffffffffffffffffffff1673ffffffffffffffffffffffffffffffffffffffff168152602001908152602001600020600201546106fb91906129dd565b600b60008473ffffffffffffffffffffffffffffffffffffffff1673ffffffffffffffffffffffffffffffffffffffff16815260200190815260200160002060020181905550600060405180606001604052803373ffffffffffffffffffffffffffffffffffffffff1681526020018473ffffffffffffffffffffffffffffffffffffffff168152602001838152509050600960008473ffffffffffffffffffffffffffffffffffffffff1673ffffffffffffffffffffffffffffffffffffffff168152602001908152602001600020600b60008573ffffffffffffffffffffffffffffffffffffffff1673ffffffffffffffffffffffffffffffffffffffff16815260200190815260200160002060020154908060018154018082558091505060019003906000526020600020016000909190919091505580600a6000600b60008773ffffffffffffffffffffffffffffffffffffffff1673ffffffffffffffffffffffffffffffffffffffff16815260200190815260200160002060020154815260200190815260200160002060008201518160000160006101000a81548173ffffffffffffffffffffffffffffffffffffffff021916908373ffffffffffffffffffffffffffffffffffffffff16021790555060208201518160010160006101000a81548173ffffffffffffffffffffffffffffffffffffffff021916908373ffffffffffffffffffffffffffffffffffffffff1602179055506040820151816002015590505061092f8383610bab565b50505050565b60006012905090565b6000610948611652565b905090565b61095e6109586114b0565b82611709565b50565b60008060008373ffffffffffffffffffffffffffffffffffffffff1673ffffffffffffffffffffffffffffffffffffffff168152602001908152602001600020549050919050565b6109bb826109b56114b0565b836114ca565b6109c58282611709565b5050565b6000600b60003373ffffffffffffffffffffffffffffffffffffffff1673ffffffffffffffffffffffffffffffffffffffff16815260200190815260200160002060050154905090565b6000610a1e8261178b565b9050919050565b600060608060008060006060610a396117d4565b610a4161180f565b46306000801b600067ffffffffffffffff811115610a6257610a61612a11565b5b604051908082528060200260200182016040528015610a905781602001602082028036833780820191505090505b507f0f00000000000000000000000000000000000000000000000000000000000000959493929190965096509650965096509650965090919293949596565b606060048054610ade90612911565b80601f0160208091040260200160405190810160405280929190818152602001828054610b0a90612911565b8015610b575780601f10610b2c57610100808354040283529160200191610b57565b820191906000526020600020905b815481529060010190602001808311610b3a57829003601f168201915b5050505050905090565b6000600b60003373ffffffffffffffffffffffffffffffffffffffff1673ffffffffffffffffffffffffffffffffffffffff16815260200190815260200160002060010154905090565b600080610bb66114b0565b9050610bc381858561155e565b600191505092915050565b610bd661218a565b600a60008381526020019081526020016000206040518060600160405290816000820160009054906101000a900473ffffffffffffffffffffffffffffffffffffffff1673ffffffffffffffffffffffffffffffffffffffff1673ffffffffffffffffffffffffffffffffffffffff1681526020016001820160009054906101000a900473ffffffffffffffffffffffffffffffffffffffff1673ffffffffffffffffffffffffffffffffffffffff1673ffffffffffffffffffffffffffffffffffffffff1681526020016002820154815250509050919050565b6060600960003373ffffffffffffffffffffffffffffffffffffffff1673ffffffffffffffffffffffffffffffffffffffff168152602001908152602001600020805480602002602001604051908101604052809291908181526020018280548015610d3c57602002820191906000526020600020905b815481526020019060010190808311610d28575b5050505050905090565b600b6020528060005260406000206000915090508060000160009054906101000a900473ffffffffffffffffffffffffffffffffffffffff16908060010154908060020154908060030154908060040154908060050154905086565b3373ffffffffffffffffffffffffffffffffffffffff163373ffffffffffffffffffffffffffffffffffffffff1614610dda57600080fd5b6000610de533610961565b11610e25576040517f08c379a0000000000000000000000000000000000000000000000000000000008152600401610e1c9061298e565b60405180910390fd5b82600b60008573ffffffffffffffffffffffffffffffffffffffff1673ffffffffffffffffffffffffffffffffffffffff16815260200190815260200160002060000160006101000a81548173ffffffffffffffffffffffffffffffffffffffff021916908373ffffffffffffffffffffffffffffffffffffffff16021790555080600b60008573ffffffffffffffffffffffffffffffffffffffff1673ffffffffffffffffffffffffffffffffffffffff16815260200190815260200160002060010154610ef491906129dd565b600b60008573ffffffffffffffffffffffffffffffffffffffff1673ffffffffffffffffffffffffffffffffffffffff168152602001908152602001600020600101819055506001600b60008573ffffffffffffffffffffffffffffffffffffffff1673ffffffffffffffffffffffffffffffffffffffff16815260200190815260200160002060020154610f8991906129dd565b600b60008573ffffffffffffffffffffffffffffffffffffffff1673ffffffffffffffffffffffffffffffffffffffff1681526020019081526020016000206002018190555081600b60008573ffffffffffffffffffffffffffffffffffffffff1673ffffffffffffffffffffffffffffffffffffffff16815260200190815260200160002060030181905550600b60008473ffffffffffffffffffffffffffffffffffffffff1673ffffffffffffffffffffffffffffffffffffffff16815260200190815260200160002060030154600b60008573ffffffffffffffffffffffffffffffffffffffff1673ffffffffffffffffffffffffffffffffffffffff168152602001908152602001600020600401546110a691906129dd565b600b60008573ffffffffffffffffffffffffffffffffffffffff1673ffffffffffffffffffffffffffffffffffffffff16815260200190815260200160002060040181905550600060405180606001604052803373ffffffffffffffffffffffffffffffffffffffff1681526020018573ffffffffffffffffffffffffffffffffffffffff168152602001848152509050600960008573ffffffffffffffffffffffffffffffffffffffff1673ffffffffffffffffffffffffffffffffffffffff168152602001908152602001600020600b60008673ffffffffffffffffffffffffffffffffffffffff1673ffffffffffffffffffffffffffffffffffffffff16815260200190815260200160002060020154908060018154018082558091505060019003906000526020600020016000909190919091505580600a6000600b60008873ffffffffffffffffffffffffffffffffffffffff1673ffffffffffffffffffffffffffffffffffffffff16815260200190815260200160002060020154815260200190815260200160002060008201518160000160006101000a81548173ffffffffffffffffffffffffffffffffffffffff021916908373ffffffffffffffffffffffffffffffffffffffff16021790555060208201518160010160006101000a81548173ffffffffffffffffffffffffffffffffffffffff021916908373ffffffffffffffffffffffffffffffffffffffff160217905550604082015181600201559050506112da8484610bab565b5050505050565b8342111561132657836040517f6279130200000000000000000000000000000000000000000000000000000000815260040161131d91906121f0565b60405180910390fd5b60007f6e71edae12b1b97f4d1f60370fef10105fa2faae0126114a169c64845d6126c98888886113558c61184a565b8960405160200161136b96959493929190612a40565b604051602081830303815290604052805190602001209050600061138e826118a1565b9050600061139e828787876118bb565b90508973ffffffffffffffffffffffffffffffffffffffff168173ffffffffffffffffffffffffffffffffffffffff161461141257808a6040517f4b800e46000000000000000000000000000000000000000000000000000000008152600401611409929190612aa1565b60405180910390fd5b61141d8a8a8a6114b8565b50505050505050505050565b6000600160008473ffffffffffffffffffffffffffffffffffffffff1673ffffffffffffffffffffffffffffffffffffffff16815260200190815260200160002060008373ffffffffffffffffffffffffffffffffffffffff1673ffffffffffffffffffffffffffffffffffffffff16815260200190815260200160002054905092915050565b600033905090565b6114c583838360016118eb565b505050565b60006114d68484611429565b90507fffffffffffffffffffffffffffffffffffffffffffffffffffffffffffffffff81146115585781811015611548578281836040517ffb8f41b200000000000000000000000000000000000000000000000000000000815260040161153f93929190612aca565b60405180910390fd5b611557848484840360006118eb565b5b50505050565b600073ffffffffffffffffffffffffffffffffffffffff168373ffffffffffffffffffffffffffffffffffffffff16036115d05760006040517f96c6fd1e0000000000000000000000000000000000000000000000000000000081526004016115c79190612b01565b60405180910390fd5b600073ffffffffffffffffffffffffffffffffffffffff168273ffffffffffffffffffffffffffffffffffffffff16036116425760006040517fec442f050000000000000000000000000000000000000000000000000000000081526004016116399190612b01565b60405180910390fd5b61164d838383611ac2565b505050565b60007f000000000000000000000000000000000000000000000000000000000000000073ffffffffffffffffffffffffffffffffffffffff163073ffffffffffffffffffffffffffffffffffffffff161480156116ce57507f000000000000000000000000000000000000000000000000000000000000000046145b156116fb577f00000000000000000000000000000000000000000000000000000000000000009050611706565b611703611ce7565b90505b90565b600073ffffffffffffffffffffffffffffffffffffffff168273ffffffffffffffffffffffffffffffffffffffff160361177b5760006040517f96c6fd1e0000000000000000000000000000000000000000000000000000000081526004016117729190612b01565b60405180910390fd5b61178782600083611ac2565b5050565b6000600760008373ffffffffffffffffffffffffffffffffffffffff1673ffffffffffffffffffffffffffffffffffffffff168152602001908152602001600020549050919050565b606061180a60057f0000000000000000000000000000000000000000000000000000000000000000611d7d90919063ffffffff16565b905090565b606061184560067f0000000000000000000000000000000000000000000000000000000000000000611d7d90919063ffffffff16565b905090565b6000600760008373ffffffffffffffffffffffffffffffffffffffff1673ffffffffffffffffffffffffffffffffffffffff1681526020019081526020016000206000815480929190600101919050559050919050565b60006118b46118ae611652565b83611e2d565b9050919050565b6000806000806118cd88888888611e6e565b9250925092506118dd8282611f62565b829350505050949350505050565b600073ffffffffffffffffffffffffffffffffffffffff168473ffffffffffffffffffffffffffffffffffffffff160361195d5760006040517fe602df050000000000000000000000000000000000000000000000000000000081526004016119549190612b01565b60405180910390fd5b600073ffffffffffffffffffffffffffffffffffffffff168373ffffffffffffffffffffffffffffffffffffffff16036119cf5760006040517f94280d620000000000000000000000000000000000000000000000000000000081526004016119c69190612b01565b60405180910390fd5b81600160008673ffffffffffffffffffffffffffffffffffffffff1673ffffffffffffffffffffffffffffffffffffffff16815260200190815260200160002060008573ffffffffffffffffffffffffffffffffffffffff1673ffffffffffffffffffffffffffffffffffffffff168152602001908152602001600020819055508015611abc578273ffffffffffffffffffffffffffffffffffffffff168473ffffffffffffffffffffffffffffffffffffffff167f8c5be1e5ebec7d5bd14f71427d1e84f3dd0314c0f7b2291e5b200ac8c7c3b92584604051611ab391906121f0565b60405180910390a35b50505050565b600073ffffffffffffffffffffffffffffffffffffffff168373ffffffffffffffffffffffffffffffffffffffff1603611b14578060026000828254611b0891906129dd565b92505081905550611be7565b60008060008573ffffffffffffffffffffffffffffffffffffffff1673ffffffffffffffffffffffffffffffffffffffff16815260200190815260200160002054905081811015611ba0578381836040517fe450d38c000000000000000000000000000000000000000000000000000000008152600401611b9793929190612aca565b60405180910390fd5b8181036000808673ffffffffffffffffffffffffffffffffffffffff1673ffffffffffffffffffffffffffffffffffffffff16815260200190815260200160002081905550505b600073ffffffffffffffffffffffffffffffffffffffff168273ffffffffffffffffffffffffffffffffffffffff1603611c305780600260008282540392505081905550611c7d565b806000808473ffffffffffffffffffffffffffffffffffffffff1673ffffffffffffffffffffffffffffffffffffffff168152602001908152602001600020600082825401925050819055505b8173ffffffffffffffffffffffffffffffffffffffff168373ffffffffffffffffffffffffffffffffffffffff167fddf252ad1be2c89b69c2b068fc378daa952ba7f163c4a11628f55a4df523b3ef83604051611cda91906121f0565b60405180910390a3505050565b60007f8b73c3c69bb8fe3d512ecc4cf759cc79239f7b179b0ffacaa9a75d522b39400f7f00000000000000000000000000000000000000000000000000000000000000007f00000000000000000000000000000000000000000000000000000000000000004630604051602001611d62959493929190612b1c565b60405160208183030381529060405280519060200120905090565b606060ff60001b8314611d9a57611d93836120c6565b9050611e27565b818054611da690612911565b80601f0160208091040260200160405190810160405280929190818152602001828054611dd290612911565b8015611e1f5780601f10611df457610100808354040283529160200191611e1f565b820191906000526020600020905b815481529060010190602001808311611e0257829003601f168201915b505050505090505b92915050565b60006040517f190100000000000000000000000000000000000000000000000000000000000081528360028201528260228201526042812091505092915050565b60008060007f7fffffffffffffffffffffffffffffff5d576e7357a4501ddfe92f46681b20a08460001c1115611eae576000600385925092509250611f58565b600060018888888860405160008152602001604052604051611ed39493929190612b6f565b6020604051602081039080840390855afa158015611ef5573d6000803e3d6000fd5b505050602060405103519050600073ffffffffffffffffffffffffffffffffffffffff168173ffffffffffffffffffffffffffffffffffffffff1603611f4957600060016000801b93509350935050611f58565b8060008060001b935093509350505b9450945094915050565b60006003811115611f7657611f75612bb4565b5b826003811115611f8957611f88612bb4565b5b03156120c25760016003811115611fa357611fa2612bb4565b5b826003811115611fb657611fb5612bb4565b5b03611fed576040517ff645eedf00000000000000000000000000000000000000000000000000000000815260040160405180910390fd5b6002600381111561200157612000612bb4565b5b82600381111561201457612013612bb4565b5b03612059578060001c6040517ffce698f700000000000000000000000000000000000000000000000000000000815260040161205091906121f0565b60405180910390fd5b60038081111561206c5761206b612bb4565b5b82600381111561207f5761207e612bb4565b5b036120c157806040517fd78bce0c0000000000000000000000000000000000000000000000000000000081526004016120b89190612465565b60405180910390fd5b5b5050565b606060006120d38361213a565b90506000602067ffffffffffffffff8111156120f2576120f1612a11565b5b6040519080825280601f01601f1916602001820160405280156121245781602001600182028036833780820191505090505b5090508181528360208201528092505050919050565b60008060ff8360001c169050601f811115612181576040517fb3512b0c00000000000000000000000000000000000000000000000000000000815260040160405180910390fd5b80915050919050565b6040518060600160405280600073ffffffffffffffffffffffffffffffffffffffff168152602001600073ffffffffffffffffffffffffffffffffffffffff168152602001600081525090565b6000819050919050565b6121ea816121d7565b82525050565b600060208201905061220560008301846121e1565b92915050565b600081519050919050565b600082825260208201905092915050565b60005b8381101561224557808201518184015260208101905061222a565b60008484015250505050565b6000601f19601f8301169050919050565b600061226d8261220b565b6122778185612216565b9350612287818560208601612227565b61229081612251565b840191505092915050565b600060208201905081810360008301526122b58184612262565b905092915050565b600080fd5b600073ffffffffffffffffffffffffffffffffffffffff82169050919050565b60006122ed826122c2565b9050919050565b6122fd816122e2565b811461230857600080fd5b50565b60008135905061231a816122f4565b92915050565b612329816121d7565b811461233457600080fd5b50565b60008135905061234681612320565b92915050565b60008060408385031215612363576123626122bd565b5b60006123718582860161230b565b925050602061238285828601612337565b9150509250929050565b60008115159050919050565b6123a18161238c565b82525050565b60006020820190506123bc6000830184612398565b92915050565b6000806000606084860312156123db576123da6122bd565b5b60006123e98682870161230b565b93505060206123fa8682870161230b565b925050604061240b86828701612337565b9150509250925092565b600060ff82169050919050565b61242b81612415565b82525050565b60006020820190506124466000830184612422565b92915050565b6000819050919050565b61245f8161244c565b82525050565b600060208201905061247a6000830184612456565b92915050565b600060208284031215612496576124956122bd565b5b60006124a484828501612337565b91505092915050565b6000602082840312156124c3576124c26122bd565b5b60006124d18482850161230b565b91505092915050565b60007fff0000000000000000000000000000000000000000000000000000000000000082169050919050565b61250f816124da565b82525050565b61251e816122e2565b82525050565b600081519050919050565b600082825260208201905092915050565b6000819050602082019050919050565b612559816121d7565b82525050565b600061256b8383612550565b60208301905092915050565b6000602082019050919050565b600061258f82612524565b612599818561252f565b93506125a483612540565b8060005b838110156125d55781516125bc888261255f565b97506125c783612577565b9250506001810190506125a8565b5085935050505092915050565b600060e0820190506125f7600083018a612506565b81810360208301526126098189612262565b9050818103604083015261261d8188612262565b905061262c60608301876121e1565b6126396080830186612515565b61264660a0830185612456565b81810360c08301526126588184612584565b905098975050505050505050565b61266f816122e2565b82525050565b60608201600082015161268b6000850182612666565b50602082015161269e6020850182612666565b5060408201516126b16040850182612550565b50505050565b60006060820190506126cc6000830184612675565b92915050565b600060208201905081810360008301526126ec8184612584565b905092915050565b600060c0820190506127096000830189612515565b61271660208301886121e1565b61272360408301876121e1565b61273060608301866121e1565b61273d60808301856121e1565b61274a60a08301846121e1565b979650505050505050565b60008060006060848603121561276e5761276d6122bd565b5b600061277c8682870161230b565b935050602061278d86828701612337565b925050604061279e86828701612337565b9150509250925092565b6127b181612415565b81146127bc57600080fd5b50565b6000813590506127ce816127a8565b92915050565b6127dd8161244c565b81146127e857600080fd5b50565b6000813590506127fa816127d4565b92915050565b600080600080600080600060e0888a03121561281f5761281e6122bd565b5b600061282d8a828b0161230b565b975050602061283e8a828b0161230b565b965050604061284f8a828b01612337565b95505060606128608a828b01612337565b94505060806128718a828b016127bf565b93505060a06128828a828b016127eb565b92505060c06128938a828b016127eb565b91505092959891949750929550565b600080604083850312156128b9576128b86122bd565b5b60006128c78582860161230b565b92505060206128d88582860161230b565b9150509250929050565b7f4e487b7100000000000000000000000000000000000000000000000000000000600052602260045260246000fd5b6000600282049050600182168061292957607f821691505b60208210810361293c5761293b6128e2565b5b50919050565b7f4e6f7420656e6f7567682046756e647300000000000000000000000000000000600082015250565b6000612978601083612216565b915061298382612942565b602082019050919050565b600060208201905081810360008301526129a78161296b565b9050919050565b7f4e487b7100000000000000000000000000000000000000000000000000000000600052601160045260246000fd5b60006129e8826121d7565b91506129f3836121d7565b9250828201905080821115612a0b57612a0a6129ae565b5b92915050565b7f4e487b7100000000000000000000000000000000000000000000000000000000600052604160045260246000fd5b600060c082019050612a556000830189612456565b612a626020830188612515565b612a6f6040830187612515565b612a7c60608301866121e1565b612a8960808301856121e1565b612a9660a08301846121e1565b979650505050505050565b6000604082019050612ab66000830185612515565b612ac36020830184612515565b9392505050565b6000606082019050612adf6000830186612515565b612aec60208301856121e1565b612af960408301846121e1565b949350505050565b6000602082019050612b166000830184612515565b92915050565b600060a082019050612b316000830188612456565b612b3e6020830187612456565b612b4b6040830186612456565b612b5860608301856121e1565b612b656080830184612515565b9695505050505050565b6000608082019050612b846000830187612456565b612b916020830186612422565b612b9e6040830185612456565b612bab6060830184612456565b95945050505050565b7f4e487b7100000000000000000000000000000000000000000000000000000000600052602160045260246000fdfea2646970667358221220b1e7ab9e4dc55f85f2f7ae15b5bfb970e0f90f847f7fa37e08ffd1b0a949f31764736f6c63430008140033",
  "linkReferences": {},
  "deployedLinkReferences": {}
}