{
  "_format": "hh-sol-artifact-1",
  "contractName": "electro",
  "sourceName": "contracts/electro.sol",
  "abi": [
    {
      "inputs": [],
      "stateMutability": "nonpayable",
      "type": "constructor"
    },
    {
      "inputs": [],
      "name": "ECDSAInvalidSignature",
      "type": "error"
    },
    {
      "inputs": [
        {
          "internalType": "uint256",
          "name": "length",
          "type": "uint256"
        }
      ],
      "name": "ECDSAInvalidSignatureLength",
      "type": "error"
    },
    {
      "inputs": [
        {
          "internalType": "bytes32",
          "name": "s",
          "type": "bytes32"
        }
      ],
      "name": "ECDSAInvalidSignatureS",
      "type": "error"
    },
    {
      "inputs": [
        {
          "internalType": "address",
          "name": "spender",
          "type": "address"
        },
        {
          "internalType": "uint256",
          "name": "allowance",
          "type": "uint256"
        },
        {
          "internalType": "uint256",
          "name": "needed",
          "type": "uint256"
        }
      ],
      "name": "ERC20InsufficientAllowance",
      "type": "error"
    },
    {
      "inputs": [
        {
          "internalType": "address",
          "name": "sender",
          "type": "address"
        },
        {
          "internalType": "uint256",
          "name": "balance",
          "type": "uint256"
        },
        {
          "internalType": "uint256",
          "name": "needed",
          "type": "uint256"
        }
      ],
      "name": "ERC20InsufficientBalance",
      "type": "error"
    },
    {
      "inputs": [
        {
          "internalType": "address",
          "name": "approver",
          "type": "address"
        }
      ],
      "name": "ERC20InvalidApprover",
      "type": "error"
    },
    {
      "inputs": [
        {
          "internalType": "address",
          "name": "receiver",
          "type": "address"
        }
      ],
      "name": "ERC20InvalidReceiver",
      "type": "error"
    },
    {
      "inputs": [
        {
          "internalType": "address",
          "name": "sender",
          "type": "address"
        }
      ],
      "name": "ERC20InvalidSender",
      "type": "error"
    },
    {
      "inputs": [
        {
          "internalType": "address",
          "name": "spender",
          "type": "address"
        }
      ],
      "name": "ERC20InvalidSpender",
      "type": "error"
    },
    {
      "inputs": [
        {
          "internalType": "uint256",
          "name": "deadline",
          "type": "uint256"
        }
      ],
      "name": "ERC2612ExpiredSignature",
      "type": "error"
    },
    {
      "inputs": [
        {
          "internalType": "address",
          "name": "signer",
          "type": "address"
        },
        {
          "internalType": "address",
          "name": "owner",
          "type": "address"
        }
      ],
      "name": "ERC2612InvalidSigner",
      "type": "error"
    },
    {
      "inputs": [
        {
          "internalType": "address",
          "name": "account",
          "type": "address"
        },
        {
          "internalType": "uint256",
          "name": "currentNonce",
          "type": "uint256"
        }
      ],
      "name": "InvalidAccountNonce",
      "type": "error"
    },
    {
      "inputs": [],
      "name": "InvalidShortString",
      "type": "error"
    },
    {
      "inputs": [
        {
          "internalType": "string",
          "name": "str",
          "type": "string"
        }
      ],
      "name": "StringTooLong",
      "type": "error"
    },
    {
      "anonymous": false,
      "inputs": [
        {
          "indexed": true,
          "internalType": "address",
          "name": "owner",
          "type": "address"
        },
        {
          "indexed": true,
          "internalType": "address",
          "name": "spender",
          "type": "address"
        },
        {
          "indexed": false,
          "internalType": "uint256",
          "name": "value",
          "type": "uint256"
        }
      ],
      "name": "Approval",
      "type": "event"
    },
    {
      "anonymous": false,
      "inputs": [],
      "name": "EIP712DomainChanged",
      "type": "event"
    },
    {
      "anonymous": false,
      "inputs": [
        {
          "indexed": true,
          "internalType": "address",
          "name": "from",
          "type": "address"
        },
        {
          "indexed": true,
          "internalType": "address",
          "name": "to",
          "type": "address"
        },
        {
          "indexed": false,
          "internalType": "uint256",
          "name": "value",
          "type": "uint256"
        }
      ],
      "name": "Transfer",
      "type": "event"
    },
    {
      "inputs": [],
      "name": "DOMAIN_SEPARATOR",
      "outputs": [
        {
          "internalType": "bytes32",
          "name": "",
          "type": "bytes32"
        }
      ],
      "stateMutability": "view",
      "type": "function"
    },
    {
      "inputs": [
        {
          "internalType": "address",
          "name": "",
          "type": "address"
        }
      ],
      "name": "People",
      "outputs": [
        {
          "internalType": "address",
          "name": "people_address",
          "type": "address"
        },
        {
          "internalType": "uint256",
          "name": "waste",
          "type": "uint256"
        },
        {
          "internalType": "uint256",
          "name": "id",
          "type": "uint256"
        },
        {
          "internalType": "uint256",
          "name": "amount",
          "type": "uint256"
        },
        {
          "internalType": "uint256",
          "name": "total_amount",
          "type": "uint256"
        },
        {
          "internalType": "uint256",
          "name": "amount_deducted",
          "type": "uint256"
        }
      ],
      "stateMutability": "view",
      "type": "function"
    },
    {
      "inputs": [
        {
          "internalType": "address",
          "name": "owner",
          "type": "address"
        },
        {
          "internalType": "address",
          "name": "spender",
          "type": "address"
        }
      ],
      "name": "allowance",
      "outputs": [
        {
          "internalType": "uint256",
          "name": "",
          "type": "uint256"
        }
      ],
      "stateMutability": "view",
      "type": "function"
    },
    {
      "inputs": [
        {
          "internalType": "address",
          "name": "spender",
          "type": "address"
        },
        {
          "internalType": "uint256",
          "name": "value",
          "type": "uint256"
        }
      ],
      "name": "approve",
      "outputs": [
        {
          "internalType": "bool",
          "name": "",
          "type": "bool"
        }
      ],
      "stateMutability": "nonpayable",
      "type": "function"
    },
    {
      "inputs": [
        {
          "internalType": "address",
          "name": "account",
          "type": "address"
        }
      ],
      "name": "balanceOf",
      "outputs": [
        {
          "internalType": "uint256",
          "name": "",
          "type": "uint256"
        }
      ],
      "stateMutability": "view",
      "type": "function"
    },
    {
      "inputs": [
        {
          "internalType": "uint256",
          "name": "value",
          "type": "uint256"
        }
      ],
      "name": "burn",
      "outputs": [],
      "stateMutability": "nonpayable",
      "type": "function"
    },
    {
      "inputs": [
        {
          "internalType": "address",
          "name": "account",
          "type": "address"
        },
        {
          "internalType": "uint256",
          "name": "value",
          "type": "uint256"
        }
      ],
      "name": "burnFrom",
      "outputs": [],
      "stateMutability": "nonpayable",
      "type": "function"
    },
    {
      "inputs": [],
      "name": "decimals",
      "outputs": [
        {
          "internalType": "uint8",
          "name": "",
          "type": "uint8"
        }
      ],
      "stateMutability": "view",
      "type": "function"
    },
    {
      "inputs": [],
      "name": "eip712Domain",
      "outputs": [
        {
          "internalType": "bytes1",
          "name": "fields",
          "type": "bytes1"
        },
        {
          "internalType": "string",
          "name": "name",
          "type": "string"
        },
        {
          "internalType": "string",
          "name": "version",
          "type": "string"
        },
        {
          "internalType": "uint256",
          "name": "chainId",
          "type": "uint256"
        },
        {
          "internalType": "address",
          "name": "verifyingContract",
          "type": "address"
        },
        {
          "internalType": "bytes32",
          "name": "salt",
          "type": "bytes32"
        },
        {
          "internalType": "uint256[]",
          "name": "extensions",
          "type": "uint256[]"
        }
      ],
      "stateMutability": "view",
      "type": "function"
    },
    {
      "inputs": [
        {
          "internalType": "uint256",
          "name": "_id",
          "type": "uint256"
        }
      ],
      "name": "fetching_log_data",
      "outputs": [
        {
          "components": [
            {
              "internalType": "address",
              "name": "from",
              "type": "address"
            },
            {
              "internalType": "address",
              "name": "to",
              "type": "address"
            },
            {
              "internalType": "uint256",
              "name": "value",
              "type": "uint256"
            }
          ],
          "internalType": "struct electro.Data",
          "name": "",
          "type": "tuple"
        }
      ],
      "stateMutability": "view",
      "type": "function"
    },
    {
      "inputs": [
        {
          "internalType": "address",
          "name": "_address",
          "type": "address"
        }
      ],
      "name": "fetching_log_int",
      "outputs": [
        {
          "internalType": "uint256[]",
          "name": "",
          "type": "uint256[]"
        }
      ],
      "stateMutability": "view",
      "type": "function"
    },
    {
      "inputs": [],
      "name": "name",
      "outputs": [
        {
          "internalType": "string",
          "name": "",
          "type": "string"
        }
      ],
      "stateMutability": "view",
      "type": "function"
    },
    {
      "inputs": [
        {
          "internalType": "address",
          "name": "owner",
          "type": "address"
        }
      ],
      "name": "nonces",
      "outputs": [
        {
          "internalType": "uint256",
          "name": "",
          "type": "uint256"
        }
      ],
      "stateMutability": "view",
      "type": "function"
    },
    {
      "inputs": [
        {
          "internalType": "address",
          "name": "_address",
          "type": "address"
        }
      ],
      "name": "people_deducted_amount",
      "outputs": [
        {
          "internalType": "uint256",
          "name": "",
          "type": "uint256"
        }
      ],
      "stateMutability": "view",
      "type": "function"
    },
    {
      "inputs": [
        {
          "internalType": "address",
          "name": "to",
          "type": "address"
        },
        {
          "internalType": "uint256",
          "name": "value",
          "type": "uint256"
        }
      ],
      "name": "people_spend",
      "outputs": [],
      "stateMutability": "nonpayable",
      "type": "function"
    },
    {
      "inputs": [
        {
          "internalType": "address",
          "name": "_address",
          "type": "address"
        }
      ],
      "name": "people_total_amount",
      "outputs": [
        {
          "internalType": "uint256",
          "name": "",
          "type": "uint256"
        }
      ],
      "stateMutability": "view",
      "type": "function"
    },
    {
      "inputs": [
        {
          "internalType": "address",
          "name": "_address",
          "type": "address"
        }
      ],
      "name": "people_waste",
      "outputs": [
        {
          "internalType": "uint256",
          "name": "",
          "type": "uint256"
        }
      ],
      "stateMutability": "view",
      "type": "function"
    },
    {
      "inputs": [
        {
          "internalType": "address",
          "name": "owner",
          "type": "address"
        },
        {
          "internalType": "address",
          "name": "spender",
          "type": "address"
        },
        {
          "internalType": "uint256",
          "name": "value",
          "type": "uint256"
        },
        {
          "internalType": "uint256",
          "name": "deadline",
          "type": "uint256"
        },
        {
          "internalType": "uint8",
          "name": "v",
          "type": "uint8"
        },
        {
          "internalType": "bytes32",
          "name": "r",
          "type": "bytes32"
        },
        {
          "internalType": "bytes32",
          "name": "s",
          "type": "bytes32"
        }
      ],
      "name": "permit",
      "outputs": [],
      "stateMutability": "nonpayable",
      "type": "function"
    },
    {
      "inputs": [
        {
          "internalType": "address",
          "name": "to",
          "type": "address"
        },
        {
          "internalType": "uint256",
          "name": "value",
          "type": "uint256"
        },
        {
          "internalType": "uint256",
          "name": "_waste",
          "type": "uint256"
        }
      ],
      "name": "sendReward",
      "outputs": [],
      "stateMutability": "nonpayable",
      "type": "function"
    },
    {
      "inputs": [],
      "name": "symbol",
      "outputs": [
        {
          "internalType": "string",
          "name": "",
          "type": "string"
        }
      ],
      "stateMutability": "view",
      "type": "function"
    },
    {
      "inputs": [],
      "name": "totalSupply",
      "outputs": [
        {
          "internalType": "uint256",
          "name": "",
          "type": "uint256"
        }
      ],
      "stateMutability": "view",
      "type": "function"
    },
    {
      "inputs": [
        {
          "internalType": "address",
          "name": "to",
          "type": "address"
        },
        {
          "internalType": "uint256",
          "name": "value",
          "type": "uint256"
        }
      ],
      "name": "transfer",
      "outputs": [
        {
          "internalType": "bool",
          "name": "",
          "type": "bool"
        }
      ],
      "stateMutability": "nonpayable",
      "type": "function"
    },
    {
      "inputs": [
        {
          "internalType": "address",
          "name": "from",
          "type": "address"
        },
        {
          "internalType": "address",
          "name": "to",
          "type": "address"
        },
        {
          "internalType": "uint256",
          "name": "value",
          "type": "uint256"
        }
      ],
      "name": "transferFrom",
      "outputs": [
        {
          "internalType": "bool",
          "name": "",
          "type": "bool"
        }
      ],
      "stateMutability": "nonpayable",
      "type": "function"
    }
  ],
  "bytecode": "0x6101606040523480156200001257600080fd5b506040518060400160405280600781526020017f4d79546f6b656e00000000000000000000000000000000000000000000000000815250806040518060400160405280600181526020017f31000000000000000000000000000000000000000000000000000000000000008152506040518060400160405280600b81526020017f456c656374726f436f696e0000000000000000000000000000000000000000008152506040518060400160405280600381526020017f45544300000000000000000000000000000000000000000000000000000000008152508160039081620000fd919062000881565b5080600490816200010f919062000881565b505050620001286005836200021e60201b90919060201c565b6101208181525050620001466006826200021e60201b90919060201c565b6101408181525050818051906020012060e08181525050808051906020012061010081815250504660a08181525050620001856200027660201b60201c565b608081815250503073ffffffffffffffffffffffffffffffffffffffff1660c08173ffffffffffffffffffffffffffffffffffffffff1681525050505050620001d7336103e8620002d360201b60201c565b33600860006101000a81548173ffffffffffffffffffffffffffffffffffffffff021916908373ffffffffffffffffffffffffffffffffffffffff16021790555062000c6c565b600060208351101562000244576200023c836200036060201b60201c565b905062000270565b826200025683620003cd60201b60201c565b600001908162000267919062000881565b5060ff60001b90505b92915050565b60007f8b73c3c69bb8fe3d512ecc4cf759cc79239f7b179b0ffacaa9a75d522b39400f60e051610100514630604051602001620002b8959493929190620009d9565b60405160208183030381529060405280519060200120905090565b600073ffffffffffffffffffffffffffffffffffffffff168273ffffffffffffffffffffffffffffffffffffffff1603620003485760006040517fec442f050000000000000000000000000000000000000000000000000000000081526004016200033f919062000a36565b60405180910390fd5b6200035c60008383620003d760201b60201c565b5050565b600080829050601f81511115620003b057826040517f305a27a9000000000000000000000000000000000000000000000000000000008152600401620003a7919062000ae2565b60405180910390fd5b805181620003be9062000b38565b60001c1760001b915050919050565b6000819050919050565b600073ffffffffffffffffffffffffffffffffffffffff168373ffffffffffffffffffffffffffffffffffffffff16036200042d57806002600082825462000420919062000bd7565b9250508190555062000503565b60008060008573ffffffffffffffffffffffffffffffffffffffff1673ffffffffffffffffffffffffffffffffffffffff16815260200190815260200160002054905081811015620004bc578381836040517fe450d38c000000000000000000000000000000000000000000000000000000008152600401620004b39392919062000c12565b60405180910390fd5b8181036000808673ffffffffffffffffffffffffffffffffffffffff1673ffffffffffffffffffffffffffffffffffffffff16815260200190815260200160002081905550505b600073ffffffffffffffffffffffffffffffffffffffff168273ffffffffffffffffffffffffffffffffffffffff16036200054e57806002600082825403925050819055506200059b565b806000808473ffffffffffffffffffffffffffffffffffffffff1673ffffffffffffffffffffffffffffffffffffffff168152602001908152602001600020600082825401925050819055505b8173ffffffffffffffffffffffffffffffffffffffff168373ffffffffffffffffffffffffffffffffffffffff167fddf252ad1be2c89b69c2b068fc378daa952ba7f163c4a11628f55a4df523b3ef83604051620005fa919062000c4f565b60405180910390a3505050565b600081519050919050565b7f4e487b7100000000000000000000000000000000000000000000000000000000600052604160045260246000fd5b7f4e487b7100000000000000000000000000000000000000000000000000000000600052602260045260246000fd5b600060028204905060018216806200068957607f821691505b6020821081036200069f576200069e62000641565b5b50919050565b60008190508160005260206000209050919050565b60006020601f8301049050919050565b600082821b905092915050565b600060088302620007097fffffffffffffffffffffffffffffffffffffffffffffffffffffffffffffffff82620006ca565b620007158683620006ca565b95508019841693508086168417925050509392505050565b6000819050919050565b6000819050919050565b6000620007626200075c62000756846200072d565b62000737565b6200072d565b9050919050565b6000819050919050565b6200077e8362000741565b620007966200078d8262000769565b848454620006d7565b825550505050565b600090565b620007ad6200079e565b620007ba81848462000773565b505050565b5b81811015620007e257620007d6600082620007a3565b600181019050620007c0565b5050565b601f8211156200083157620007fb81620006a5565b6200080684620006ba565b8101602085101562000816578190505b6200082e6200082585620006ba565b830182620007bf565b50505b505050565b600082821c905092915050565b6000620008566000198460080262000836565b1980831691505092915050565b600062000871838362000843565b9150826002028217905092915050565b6200088c8262000607565b67ffffffffffffffff811115620008a857620008a762000612565b5b620008b4825462000670565b620008c1828285620007e6565b600060209050601f831160018114620008f95760008415620008e4578287015190505b620008f0858262000863565b86555062000960565b601f1984166200090986620006a5565b60005b8281101562000933578489015182556001820191506020850194506020810190506200090c565b868310156200095357848901516200094f601f89168262000843565b8355505b6001600288020188555050505b505050505050565b6000819050919050565b6200097d8162000968565b82525050565b6200098e816200072d565b82525050565b600073ffffffffffffffffffffffffffffffffffffffff82169050919050565b6000620009c18262000994565b9050919050565b620009d381620009b4565b82525050565b600060a082019050620009f0600083018862000972565b620009ff602083018762000972565b62000a0e604083018662000972565b62000a1d606083018562000983565b62000a2c6080830184620009c8565b9695505050505050565b600060208201905062000a4d6000830184620009c8565b92915050565b600082825260208201905092915050565b60005b8381101562000a8457808201518184015260208101905062000a67565b60008484015250505050565b6000601f19601f8301169050919050565b600062000aae8262000607565b62000aba818562000a53565b935062000acc81856020860162000a64565b62000ad78162000a90565b840191505092915050565b6000602082019050818103600083015262000afe818462000aa1565b905092915050565b600081519050919050565b6000819050602082019050919050565b600062000b2f825162000968565b80915050919050565b600062000b458262000b06565b8262000b518462000b11565b905062000b5e8162000b21565b9250602082101562000ba15762000b9c7fffffffffffffffffffffffffffffffffffffffffffffffffffffffffffffffff83602003600802620006ca565b831692505b5050919050565b7f4e487b7100000000000000000000000000000000000000000000000000000000600052601160045260246000fd5b600062000be4826200072d565b915062000bf1836200072d565b925082820190508082111562000c0c5762000c0b62000ba8565b5b92915050565b600060608201905062000c296000830186620009c8565b62000c38602083018562000983565b62000c47604083018462000983565b949350505050565b600060208201905062000c66600083018462000983565b92915050565b60805160a05160c05160e051610100516101205161014051612c6962000cc760003960006118680152600061182d01526000611d7d01526000611d5c015260006116a6015260006116fc015260006117250152612c696000f3fe608060405234801561001057600080fd5b506004361061014d5760003560e01c806370a08231116100c3578063b082b6881161007c578063b082b688146103e0578063bd30fe1d14610410578063c35d83a014610445578063d505accf14610461578063dd62ed3e1461047d578063e04bb674146104ad5761014d565b806370a08231146102f257806379cc6790146103225780637ecebe001461033e57806384b0196e1461036e57806395d89b4114610392578063a9059cbb146103b05761014d565b8063304e79f511610115578063304e79f51461021e578063313ce5671461023a5780633644e515146102585780633ab4f7481461027657806342966c68146102a6578063701dc2c6146102c25761014d565b806306fdde0314610152578063095ea7b31461017057806318160ddd146101a057806319059cbe146101be57806323b872dd146101ee575b600080fd5b61015a6104dd565b60405161016791906122b7565b60405180910390f35b61018a60048036038101906101859190612372565b61056f565b60405161019791906123cd565b60405180910390f35b6101a8610592565b6040516101b591906123f7565b60405180910390f35b6101d860048036038101906101d39190612412565b61059c565b6040516101e591906123f7565b60405180910390f35b6102086004803603810190610203919061243f565b6105e8565b60405161021591906123cd565b60405180910390f35b61023860048036038101906102339190612372565b610617565b005b61024261097f565b60405161024f91906124ae565b60405180910390f35b610260610988565b60405161026d91906124e2565b60405180910390f35b610290600480360381019061028b9190612412565b610997565b60405161029d91906123f7565b60405180910390f35b6102c060048036038101906102bb91906124fd565b6109e3565b005b6102dc60048036038101906102d79190612412565b6109f7565b6040516102e991906123f7565b60405180910390f35b61030c60048036038101906103079190612412565b610a43565b60405161031991906123f7565b60405180910390f35b61033c60048036038101906103379190612372565b610a8b565b005b61035860048036038101906103539190612412565b610aab565b60405161036591906123f7565b60405180910390f35b610376610abd565b6040516103899796959493929190612632565b60405180910390f35b61039a610b67565b6040516103a791906122b7565b60405180910390f35b6103ca60048036038101906103c59190612372565b610bf9565b6040516103d791906123cd565b60405180910390f35b6103fa60048036038101906103f591906124fd565b610c1c565b6040516104079190612707565b60405180910390f35b61042a60048036038101906104259190612412565b610cff565b60405161043c96959493929190612722565b60405180910390f35b61045f600480360381019061045a9190612783565b610d5b565b005b61047b6004803603810190610476919061282e565b61129a565b005b610497600480360381019061049291906128d0565b6113e2565b6040516104a491906123f7565b60405180910390f35b6104c760048036038101906104c29190612412565b611469565b6040516104d49190612910565b60405180910390f35b6060600380546104ec90612961565b80601f016020809104026020016040519081016040528092919081815260200182805461051890612961565b80156105655780601f1061053a57610100808354040283529160200191610565565b820191906000526020600020905b81548152906001019060200180831161054857829003601f168201915b5050505050905090565b60008061057a611500565b9050610587818585611508565b600191505092915050565b6000600254905090565b6000600b60008373ffffffffffffffffffffffffffffffffffffffff1673ffffffffffffffffffffffffffffffffffffffff168152602001908152602001600020600101549050919050565b6000806105f3611500565b905061060085828561151a565b61060b8585856115ae565b60019150509392505050565b600061062233610a43565b11610662576040517f08c379a0000000000000000000000000000000000000000000000000000000008152600401610659906129de565b60405180910390fd5b80600b60003373ffffffffffffffffffffffffffffffffffffffff1673ffffffffffffffffffffffffffffffffffffffff168152602001908152602001600020600501546106b09190612a2d565b600b60003373ffffffffffffffffffffffffffffffffffffffff1673ffffffffffffffffffffffffffffffffffffffff168152602001908152602001600020600501819055506001600b60008473ffffffffffffffffffffffffffffffffffffffff1673ffffffffffffffffffffffffffffffffffffffff168152602001908152602001600020600201546107459190612a2d565b600b60008473ffffffffffffffffffffffffffffffffffffffff1673ffffffffffffffffffffffffffffffffffffffff16815260200190815260200160002060020181905550600060405180606001604052803373ffffffffffffffffffffffffffffffffffffffff1681526020018473ffffffffffffffffffffffffffffffffffffffff168152602001838152509050600960008473ffffffffffffffffffffffffffffffffffffffff1673ffffffffffffffffffffffffffffffffffffffff168152602001908152602001600020600b60008573ffffffffffffffffffffffffffffffffffffffff1673ffffffffffffffffffffffffffffffffffffffff16815260200190815260200160002060020154908060018154018082558091505060019003906000526020600020016000909190919091505580600a6000600b60008773ffffffffffffffffffffffffffffffffffffffff1673ffffffffffffffffffffffffffffffffffffffff16815260200190815260200160002060020154815260200190815260200160002060008201518160000160006101000a81548173ffffffffffffffffffffffffffffffffffffffff021916908373ffffffffffffffffffffffffffffffffffffffff16021790555060208201518160010160006101000a81548173ffffffffffffffffffffffffffffffffffffffff021916908373ffffffffffffffffffffffffffffffffffffffff160217905550604082015181600201559050506109798383610bf9565b50505050565b60006012905090565b60006109926116a2565b905090565b6000600b60008373ffffffffffffffffffffffffffffffffffffffff1673ffffffffffffffffffffffffffffffffffffffff168152602001908152602001600020600401549050919050565b6109f46109ee611500565b82611759565b50565b6000600b60008373ffffffffffffffffffffffffffffffffffffffff1673ffffffffffffffffffffffffffffffffffffffff168152602001908152602001600020600501549050919050565b60008060008373ffffffffffffffffffffffffffffffffffffffff1673ffffffffffffffffffffffffffffffffffffffff168152602001908152602001600020549050919050565b610a9d82610a97611500565b8361151a565b610aa78282611759565b5050565b6000610ab6826117db565b9050919050565b600060608060008060006060610ad1611824565b610ad961185f565b46306000801b600067ffffffffffffffff811115610afa57610af9612a61565b5b604051908082528060200260200182016040528015610b285781602001602082028036833780820191505090505b507f0f00000000000000000000000000000000000000000000000000000000000000959493929190965096509650965096509650965090919293949596565b606060048054610b7690612961565b80601f0160208091040260200160405190810160405280929190818152602001828054610ba290612961565b8015610bef5780601f10610bc457610100808354040283529160200191610bef565b820191906000526020600020905b815481529060010190602001808311610bd257829003601f168201915b5050505050905090565b600080610c04611500565b9050610c118185856115ae565b600191505092915050565b610c246121da565b600a60008381526020019081526020016000206040518060600160405290816000820160009054906101000a900473ffffffffffffffffffffffffffffffffffffffff1673ffffffffffffffffffffffffffffffffffffffff1673ffffffffffffffffffffffffffffffffffffffff1681526020016001820160009054906101000a900473ffffffffffffffffffffffffffffffffffffffff1673ffffffffffffffffffffffffffffffffffffffff1673ffffffffffffffffffffffffffffffffffffffff1681526020016002820154815250509050919050565b600b6020528060005260406000206000915090508060000160009054906101000a900473ffffffffffffffffffffffffffffffffffffffff16908060010154908060020154908060030154908060040154908060050154905086565b3373ffffffffffffffffffffffffffffffffffffffff163373ffffffffffffffffffffffffffffffffffffffff1614610d9357600080fd5b6000610d9e33610a43565b11610dde576040517f08c379a0000000000000000000000000000000000000000000000000000000008152600401610dd5906129de565b60405180910390fd5b82600b60008573ffffffffffffffffffffffffffffffffffffffff1673ffffffffffffffffffffffffffffffffffffffff16815260200190815260200160002060000160006101000a81548173ffffffffffffffffffffffffffffffffffffffff021916908373ffffffffffffffffffffffffffffffffffffffff16021790555080600b60008573ffffffffffffffffffffffffffffffffffffffff1673ffffffffffffffffffffffffffffffffffffffff16815260200190815260200160002060010154610ead9190612a2d565b600b60008573ffffffffffffffffffffffffffffffffffffffff1673ffffffffffffffffffffffffffffffffffffffff168152602001908152602001600020600101819055506001600b60008573ffffffffffffffffffffffffffffffffffffffff1673ffffffffffffffffffffffffffffffffffffffff16815260200190815260200160002060020154610f429190612a2d565b600b60008573ffffffffffffffffffffffffffffffffffffffff1673ffffffffffffffffffffffffffffffffffffffff1681526020019081526020016000206002018190555081600b60008573ffffffffffffffffffffffffffffffffffffffff1673ffffffffffffffffffffffffffffffffffffffff16815260200190815260200160002060030181905550600b60008473ffffffffffffffffffffffffffffffffffffffff1673ffffffffffffffffffffffffffffffffffffffff16815260200190815260200160002060030154600b60008573ffffffffffffffffffffffffffffffffffffffff1673ffffffffffffffffffffffffffffffffffffffff1681526020019081526020016000206004015461105f9190612a2d565b600b60008573ffffffffffffffffffffffffffffffffffffffff1673ffffffffffffffffffffffffffffffffffffffff16815260200190815260200160002060040181905550600060405180606001604052803373ffffffffffffffffffffffffffffffffffffffff1681526020018573ffffffffffffffffffffffffffffffffffffffff168152602001848152509050600960008573ffffffffffffffffffffffffffffffffffffffff1673ffffffffffffffffffffffffffffffffffffffff168152602001908152602001600020600b60008673ffffffffffffffffffffffffffffffffffffffff1673ffffffffffffffffffffffffffffffffffffffff16815260200190815260200160002060020154908060018154018082558091505060019003906000526020600020016000909190919091505580600a6000600b60008873ffffffffffffffffffffffffffffffffffffffff1673ffffffffffffffffffffffffffffffffffffffff16815260200190815260200160002060020154815260200190815260200160002060008201518160000160006101000a81548173ffffffffffffffffffffffffffffffffffffffff021916908373ffffffffffffffffffffffffffffffffffffffff16021790555060208201518160010160006101000a81548173ffffffffffffffffffffffffffffffffffffffff021916908373ffffffffffffffffffffffffffffffffffffffff160217905550604082015181600201559050506112938484610bf9565b5050505050565b834211156112df57836040517f627913020000000000000000000000000000000000000000000000000000000081526004016112d691906123f7565b60405180910390fd5b60007f6e71edae12b1b97f4d1f60370fef10105fa2faae0126114a169c64845d6126c988888861130e8c61189a565b8960405160200161132496959493929190612a90565b6040516020818303038152906040528051906020012090506000611347826118f1565b905060006113578287878761190b565b90508973ffffffffffffffffffffffffffffffffffffffff168173ffffffffffffffffffffffffffffffffffffffff16146113cb57808a6040517f4b800e460000000000000000000000000000000000000000000000000000000081526004016113c2929190612af1565b60405180910390fd5b6113d68a8a8a611508565b50505050505050505050565b6000600160008473ffffffffffffffffffffffffffffffffffffffff1673ffffffffffffffffffffffffffffffffffffffff16815260200190815260200160002060008373ffffffffffffffffffffffffffffffffffffffff1673ffffffffffffffffffffffffffffffffffffffff16815260200190815260200160002054905092915050565b6060600960008373ffffffffffffffffffffffffffffffffffffffff1673ffffffffffffffffffffffffffffffffffffffff1681526020019081526020016000208054806020026020016040519081016040528092919081815260200182805480156114f457602002820191906000526020600020905b8154815260200190600101908083116114e0575b50505050509050919050565b600033905090565b611515838383600161193b565b505050565b600061152684846113e2565b90507fffffffffffffffffffffffffffffffffffffffffffffffffffffffffffffffff81146115a85781811015611598578281836040517ffb8f41b200000000000000000000000000000000000000000000000000000000815260040161158f93929190612b1a565b60405180910390fd5b6115a78484848403600061193b565b5b50505050565b600073ffffffffffffffffffffffffffffffffffffffff168373ffffffffffffffffffffffffffffffffffffffff16036116205760006040517f96c6fd1e0000000000000000000000000000000000000000000000000000000081526004016116179190612b51565b60405180910390fd5b600073ffffffffffffffffffffffffffffffffffffffff168273ffffffffffffffffffffffffffffffffffffffff16036116925760006040517fec442f050000000000000000000000000000000000000000000000000000000081526004016116899190612b51565b60405180910390fd5b61169d838383611b12565b505050565b60007f000000000000000000000000000000000000000000000000000000000000000073ffffffffffffffffffffffffffffffffffffffff163073ffffffffffffffffffffffffffffffffffffffff1614801561171e57507f000000000000000000000000000000000000000000000000000000000000000046145b1561174b577f00000000000000000000000000000000000000000000000000000000000000009050611756565b611753611d37565b90505b90565b600073ffffffffffffffffffffffffffffffffffffffff168273ffffffffffffffffffffffffffffffffffffffff16036117cb5760006040517f96c6fd1e0000000000000000000000000000000000000000000000000000000081526004016117c29190612b51565b60405180910390fd5b6117d782600083611b12565b5050565b6000600760008373ffffffffffffffffffffffffffffffffffffffff1673ffffffffffffffffffffffffffffffffffffffff168152602001908152602001600020549050919050565b606061185a60057f0000000000000000000000000000000000000000000000000000000000000000611dcd90919063ffffffff16565b905090565b606061189560067f0000000000000000000000000000000000000000000000000000000000000000611dcd90919063ffffffff16565b905090565b6000600760008373ffffffffffffffffffffffffffffffffffffffff1673ffffffffffffffffffffffffffffffffffffffff1681526020019081526020016000206000815480929190600101919050559050919050565b60006119046118fe6116a2565b83611e7d565b9050919050565b60008060008061191d88888888611ebe565b92509250925061192d8282611fb2565b829350505050949350505050565b600073ffffffffffffffffffffffffffffffffffffffff168473ffffffffffffffffffffffffffffffffffffffff16036119ad5760006040517fe602df050000000000000000000000000000000000000000000000000000000081526004016119a49190612b51565b60405180910390fd5b600073ffffffffffffffffffffffffffffffffffffffff168373ffffffffffffffffffffffffffffffffffffffff1603611a1f5760006040517f94280d62000000000000000000000000000000000000000000000000000000008152600401611a169190612b51565b60405180910390fd5b81600160008673ffffffffffffffffffffffffffffffffffffffff1673ffffffffffffffffffffffffffffffffffffffff16815260200190815260200160002060008573ffffffffffffffffffffffffffffffffffffffff1673ffffffffffffffffffffffffffffffffffffffff168152602001908152602001600020819055508015611b0c578273ffffffffffffffffffffffffffffffffffffffff168473ffffffffffffffffffffffffffffffffffffffff167f8c5be1e5ebec7d5bd14f71427d1e84f3dd0314c0f7b2291e5b200ac8c7c3b92584604051611b0391906123f7565b60405180910390a35b50505050565b600073ffffffffffffffffffffffffffffffffffffffff168373ffffffffffffffffffffffffffffffffffffffff1603611b64578060026000828254611b589190612a2d565b92505081905550611c37565b60008060008573ffffffffffffffffffffffffffffffffffffffff1673ffffffffffffffffffffffffffffffffffffffff16815260200190815260200160002054905081811015611bf0578381836040517fe450d38c000000000000000000000000000000000000000000000000000000008152600401611be793929190612b1a565b60405180910390fd5b8181036000808673ffffffffffffffffffffffffffffffffffffffff1673ffffffffffffffffffffffffffffffffffffffff16815260200190815260200160002081905550505b600073ffffffffffffffffffffffffffffffffffffffff168273ffffffffffffffffffffffffffffffffffffffff1603611c805780600260008282540392505081905550611ccd565b806000808473ffffffffffffffffffffffffffffffffffffffff1673ffffffffffffffffffffffffffffffffffffffff168152602001908152602001600020600082825401925050819055505b8173ffffffffffffffffffffffffffffffffffffffff168373ffffffffffffffffffffffffffffffffffffffff167fddf252ad1be2c89b69c2b068fc378daa952ba7f163c4a11628f55a4df523b3ef83604051611d2a91906123f7565b60405180910390a3505050565b60007f8b73c3c69bb8fe3d512ecc4cf759cc79239f7b179b0ffacaa9a75d522b39400f7f00000000000000000000000000000000000000000000000000000000000000007f00000000000000000000000000000000000000000000000000000000000000004630604051602001611db2959493929190612b6c565b60405160208183030381529060405280519060200120905090565b606060ff60001b8314611dea57611de383612116565b9050611e77565b818054611df690612961565b80601f0160208091040260200160405190810160405280929190818152602001828054611e2290612961565b8015611e6f5780601f10611e4457610100808354040283529160200191611e6f565b820191906000526020600020905b815481529060010190602001808311611e5257829003601f168201915b505050505090505b92915050565b60006040517f190100000000000000000000000000000000000000000000000000000000000081528360028201528260228201526042812091505092915050565b60008060007f7fffffffffffffffffffffffffffffff5d576e7357a4501ddfe92f46681b20a08460001c1115611efe576000600385925092509250611fa8565b600060018888888860405160008152602001604052604051611f239493929190612bbf565b6020604051602081039080840390855afa158015611f45573d6000803e3d6000fd5b505050602060405103519050600073ffffffffffffffffffffffffffffffffffffffff168173ffffffffffffffffffffffffffffffffffffffff1603611f9957600060016000801b93509350935050611fa8565b8060008060001b935093509350505b9450945094915050565b60006003811115611fc657611fc5612c04565b5b826003811115611fd957611fd8612c04565b5b03156121125760016003811115611ff357611ff2612c04565b5b82600381111561200657612005612c04565b5b0361203d576040517ff645eedf00000000000000000000000000000000000000000000000000000000815260040160405180910390fd5b6002600381111561205157612050612c04565b5b82600381111561206457612063612c04565b5b036120a9578060001c6040517ffce698f70000000000000000000000000000000000000000000000000000000081526004016120a091906123f7565b60405180910390fd5b6003808111156120bc576120bb612c04565b5b8260038111156120cf576120ce612c04565b5b0361211157806040517fd78bce0c00000000000000000000000000000000000000000000000000000000815260040161210891906124e2565b60405180910390fd5b5b5050565b606060006121238361218a565b90506000602067ffffffffffffffff81111561214257612141612a61565b5b6040519080825280601f01601f1916602001820160405280156121745781602001600182028036833780820191505090505b5090508181528360208201528092505050919050565b60008060ff8360001c169050601f8111156121d1576040517fb3512b0c00000000000000000000000000000000000000000000000000000000815260040160405180910390fd5b80915050919050565b6040518060600160405280600073ffffffffffffffffffffffffffffffffffffffff168152602001600073ffffffffffffffffffffffffffffffffffffffff168152602001600081525090565b600081519050919050565b600082825260208201905092915050565b60005b83811015612261578082015181840152602081019050612246565b60008484015250505050565b6000601f19601f8301169050919050565b600061228982612227565b6122938185612232565b93506122a3818560208601612243565b6122ac8161226d565b840191505092915050565b600060208201905081810360008301526122d1818461227e565b905092915050565b600080fd5b600073ffffffffffffffffffffffffffffffffffffffff82169050919050565b6000612309826122de565b9050919050565b612319816122fe565b811461232457600080fd5b50565b60008135905061233681612310565b92915050565b6000819050919050565b61234f8161233c565b811461235a57600080fd5b50565b60008135905061236c81612346565b92915050565b60008060408385031215612389576123886122d9565b5b600061239785828601612327565b92505060206123a88582860161235d565b9150509250929050565b60008115159050919050565b6123c7816123b2565b82525050565b60006020820190506123e260008301846123be565b92915050565b6123f18161233c565b82525050565b600060208201905061240c60008301846123e8565b92915050565b600060208284031215612428576124276122d9565b5b600061243684828501612327565b91505092915050565b600080600060608486031215612458576124576122d9565b5b600061246686828701612327565b935050602061247786828701612327565b92505060406124888682870161235d565b9150509250925092565b600060ff82169050919050565b6124a881612492565b82525050565b60006020820190506124c3600083018461249f565b92915050565b6000819050919050565b6124dc816124c9565b82525050565b60006020820190506124f760008301846124d3565b92915050565b600060208284031215612513576125126122d9565b5b60006125218482850161235d565b91505092915050565b60007fff0000000000000000000000000000000000000000000000000000000000000082169050919050565b61255f8161252a565b82525050565b61256e816122fe565b82525050565b600081519050919050565b600082825260208201905092915050565b6000819050602082019050919050565b6125a98161233c565b82525050565b60006125bb83836125a0565b60208301905092915050565b6000602082019050919050565b60006125df82612574565b6125e9818561257f565b93506125f483612590565b8060005b8381101561262557815161260c88826125af565b9750612617836125c7565b9250506001810190506125f8565b5085935050505092915050565b600060e082019050612647600083018a612556565b8181036020830152612659818961227e565b9050818103604083015261266d818861227e565b905061267c60608301876123e8565b6126896080830186612565565b61269660a08301856124d3565b81810360c08301526126a881846125d4565b905098975050505050505050565b6126bf816122fe565b82525050565b6060820160008201516126db60008501826126b6565b5060208201516126ee60208501826126b6565b50604082015161270160408501826125a0565b50505050565b600060608201905061271c60008301846126c5565b92915050565b600060c0820190506127376000830189612565565b61274460208301886123e8565b61275160408301876123e8565b61275e60608301866123e8565b61276b60808301856123e8565b61277860a08301846123e8565b979650505050505050565b60008060006060848603121561279c5761279b6122d9565b5b60006127aa86828701612327565b93505060206127bb8682870161235d565b92505060406127cc8682870161235d565b9150509250925092565b6127df81612492565b81146127ea57600080fd5b50565b6000813590506127fc816127d6565b92915050565b61280b816124c9565b811461281657600080fd5b50565b60008135905061282881612802565b92915050565b600080600080600080600060e0888a03121561284d5761284c6122d9565b5b600061285b8a828b01612327565b975050602061286c8a828b01612327565b965050604061287d8a828b0161235d565b955050606061288e8a828b0161235d565b945050608061289f8a828b016127ed565b93505060a06128b08a828b01612819565b92505060c06128c18a828b01612819565b91505092959891949750929550565b600080604083850312156128e7576128e66122d9565b5b60006128f585828601612327565b925050602061290685828601612327565b9150509250929050565b6000602082019050818103600083015261292a81846125d4565b905092915050565b7f4e487b7100000000000000000000000000000000000000000000000000000000600052602260045260246000fd5b6000600282049050600182168061297957607f821691505b60208210810361298c5761298b612932565b5b50919050565b7f4e6f7420656e6f7567682046756e647300000000000000000000000000000000600082015250565b60006129c8601083612232565b91506129d382612992565b602082019050919050565b600060208201905081810360008301526129f7816129bb565b9050919050565b7f4e487b7100000000000000000000000000000000000000000000000000000000600052601160045260246000fd5b6000612a388261233c565b9150612a438361233c565b9250828201905080821115612a5b57612a5a6129fe565b5b92915050565b7f4e487b7100000000000000000000000000000000000000000000000000000000600052604160045260246000fd5b600060c082019050612aa560008301896124d3565b612ab26020830188612565565b612abf6040830187612565565b612acc60608301866123e8565b612ad960808301856123e8565b612ae660a08301846123e8565b979650505050505050565b6000604082019050612b066000830185612565565b612b136020830184612565565b9392505050565b6000606082019050612b2f6000830186612565565b612b3c60208301856123e8565b612b4960408301846123e8565b949350505050565b6000602082019050612b666000830184612565565b92915050565b600060a082019050612b8160008301886124d3565b612b8e60208301876124d3565b612b9b60408301866124d3565b612ba860608301856123e8565b612bb56080830184612565565b9695505050505050565b6000608082019050612bd460008301876124d3565b612be1602083018661249f565b612bee60408301856124d3565b612bfb60608301846124d3565b95945050505050565b7f4e487b7100000000000000000000000000000000000000000000000000000000600052602160045260246000fdfea264697066735822122097db725fe3fdd130e2ec659736d87293f6d6722e5f4b37bc8c160cdcd016758264736f6c63430008140033",
  "linkReferences": {},
  "deployedLinkReferences": {}
}